:020000040800F2
:100000000080012045840008AB110008AD110008F4
:10001000AF110008B1110008B31100080000000082
:10002000000000000000000000000000B511000802
:10003000B711000800000000B9110008BB1100084A
:10004000958400089584000895840008958400082C
:100050009584000895840008D1720008DF720008BA
:10006000ED720008FB720008C311000895840008B7
:1000700095840008958400089584000895840008FC
:1000800095840008958400089584000895840008EC
:100090009584000895840008958400080973000879
:1000A00095840008958400089584000895840008CC
:1000B00095840008958400089584000895840008BC
:1000C00095840008958400089584000895840008AC
:1000D00095840008958400085D81000895840008D7
:1000E000CD110008D91100089584000895840008F6
:1000F000958400089584000895840008958400087C
:10010000958400089584000895840008958400086B
:10011000958400089584000895840008958400085B
:10012000958400089584000895840008958400084B
:10013000958400089584000895840008958400083B
:10014000958400089584000895840008958400082B
:10015000958400089584000895840008958400081B
:10016000958400089584000895840008958400080B
:10017000958400089584000895840008000000001C
:08018000958400089584000835
:1001900010B5054C237833B9044B13B10448AFF3C1
:1001A00000800123237010BD7800002000000000B3
:1001B0008899000808B5034B1BB103490348AFF306
:1001C000008008BD000000007C0000208899000825
:1001D00001F0FF01102A2BDB10F0070F08D010F8F8
:1001E000013B013A8B422DD010F0070F42B3F6D1FC
:1001F000F0B441EA012141EA014122F007047FF015
:1002000000070023F0E80256083C85EA010586EA6B
:10021000010685FA47F5A3FA87F586FA47F6A5FAA7
:1002200087F68EB9EED1F0BC01F0FF0102F00702B3
:1002300032B110F8013B013A83EA010313B1F8D15E
:100240000020704701387047002D06BF354603383F
:10025000073815F0010F07D1013015F4807F02BF78
:10026000013015F4C03F0130F0BC0138704700BFC9
:1002700081F0004102E000BF83F0004330B54FEA57
:1002800041044FEA430594EA050F08BF90EA020FC4
:100290001FBF54EA000C55EA020C7FEA645C7FEA57
:1002A000655C00F0E2804FEA5454D4EB5555B8BF7A
:1002B0006D420CDD2C4480EA020281EA030382EAEB
:1002C000000083EA010180EA020281EA0303362D7D
:1002D00088BF30BD11F0004F4FEA01314FF4801C50
:1002E0004CEA113102D0404261EB410113F0004F62
:1002F0004FEA03334CEA133302D0524263EB430319
:1003000094EA050F00F0A780A4F10104D5F1200EB6
:100310000DDB02FA0EFC22FA05F2801841F1000111
:1003200003FA0EF2801843FA05F359410EE0A5F1E5
:1003300020050EF1200E012A03FA0EFC28BF4CF016
:10034000020C43FA05F3C01851EBE37101F00045CC
:1003500007D54FF0000EDCF1000C7EEB00006EEBD9
:100360000101B1F5801F1BD3B1F5001F0CD3490863
:100370005FEA30004FEA3C0C04F101044FEA4452BA
:1003800012F5800F80F09A80BCF1004F08BF5FEA41
:10039000500C50F1000041EB045141EA050130BD21
:1003A0005FEA4C0C404141EB0101013C28BFB1F533
:1003B000801FE9D291F0000F04BF01460020B1FA7E
:1003C00081F308BF2033A3F10B03B3F120020CDA51
:1003D0000C3208DD02F1140CC2F10C0201FA0CF02F
:1003E00021FA02F10CE002F11402D8BFC2F1200C94
:1003F00001FA02F120FA0CFCDCBF41EA0C0190404A
:10040000E41AA2BF01EB0451294330BD6FEA040492
:100410001F3C1CDA0C340EDC04F11404C4F120027D
:1004200020FA04F001FA02F340EA030021FA04F38F
:1004300045EA030130BDC4F10C04C4F1200220FAE6
:1004400002F001FA04F340EA0300294630BD21FA24
:1004500004F0294630BD94F0000F83F4801306BFEA
:1004600081F480110134013D4EE77FEA645C18BFDE
:100470007FEA655C29D094EA050F08BF90EA020F75
:1004800005D054EA000C04BF1946104630BD91EA6D
:10049000030F1EBF0021002030BD5FEA545C05D170
:1004A0004000494128BF41F0004130BD14F58004AF
:1004B0003CBF01F5801130BD01F0004545F0FE4123
:1004C00041F470014FF0000030BD7FEA645C1ABF58
:1004D000194610467FEA655C1CBF0B46024650EA8F
:1004E000013406BF52EA033591EA030F41F40021BB
:1004F00030BD00BF90F0000F04BF0021704730B541
:100500004FF4806404F132044FF000054FF0000115
:1005100050E700BF90F0000F04BF0021704730B5D6
:100520004FF4806404F1320410F0004548BF4042AB
:100530004FF000013EE700BF42004FEAE2014FEA00
:1005400031014FEA02701FBF12F07F4393F07F4FDB
:1005500081F06051704732F07F4208BF704793F0DE
:100560007F4F04BF41F40021704730B54FF46074F1
:1005700001F0004521F000411CE700BF50EA0102F4
:1005800008BF704730B54FF000050AE050EA01029D
:1005900008BF704730B511F0004502D5404261EB0D
:1005A00041014FF4806404F132045FEA915C3FF44E
:1005B000D8AE4FF003025FEADC0C18BF03325FEAEB
:1005C000DC0C18BF033202EBDC02C2F1200300FA9C
:1005D00003FC20FA02F001FA03FE40EA0E0021FAC1
:1005E00002F11444BDE600BF70B54FF0FF0C4CF4AF
:1005F000E06C1CEA11541DBF1CEA135594EA0C0F61
:1006000095EA0C0F00F0DEF82C4481EA030621EA9B
:100610004C5123EA4C5350EA013518BF52EA0335D6
:1006200041F4801143F4801338D0A0FB02CE4FF088
:100630000005E1FB02E506F00042E0FB03E54FF0B8
:100640000006E1FB03569CF0000F18BF4EF0010EB0
:10065000A4F1FF04B6F5007F64F5407404D25FEAAC
:100660004E0E6D4146EB060642EAC62141EA55515F
:100670004FEAC52040EA5E504FEACE2EB4F1FD0CA1
:1006800088BFBCF5E06F1ED8BEF1004F08BF5FEA1F
:10069000500E50F1000041EB045170BD06F00046D1
:1006A00046EA010140EA020081EA0301B4EB5C047E
:1006B000C2BFD4EB0C0541EA045170BD41F4801176
:1006C0004FF0000E013C00F3AB8014F1360FDEBF9B
:1006D000002001F0004170BDC4F10004203C35DA77
:1006E0000C341BDC04F11404C4F1200500FA05F3FA
:1006F00020FA04F001FA05F240EA020001F000429B
:1007000021F0004110EBD37021FA04F642EB060110
:100710005EEA430E08BF20EAD37070BDC4F10C043A
:10072000C4F1200500FA04F320FA05F001FA04F2FE
:1007300040EA020001F0004110EBD37041F10001EA
:100740005EEA430E08BF20EAD37070BDC4F12005F5
:1007500000FA05F24EEA020E20FA04F301FA05F25D
:1007600043EA020321FA04F001F0004121FA04F205
:1007700020EA020000EBD3705EEA430E08BF20EAD5
:10078000D37070BD94F0000F0FD101F0004640000F
:1007900041EB010111F4801F08BF013CF7D041EA91
:1007A000060195F0000F18BF704703F00046520095
:1007B00043EB030313F4801F08BF013DF7D043EA66
:1007C0000603704794EA0C0F0CEA135518BF95EA1C
:1007D0000C0F0CD050EA410618BF52EA4306D1D1A3
:1007E00081EA030101F000414FF0000070BD50EAC2
:1007F000410606BF1046194652EA430619D094EA4C
:100800000C0F02D150EA013613D195EA0C0F05D135
:1008100052EA03361CBF104619460AD181EA030189
:1008200001F0004141F0FE4141F470014FF0000041
:1008300070BD41F0FE4141F4780170BD70B54FF0DC
:10084000FF0C4CF4E06C1CEA11541DBF1CEA13555C
:1008500094EA0C0F95EA0C0F00F0A7F8A4EB05043E
:1008600081EA030E52EA03354FEA013100F0888035
:100870004FEA03334FF0805545EA131343EA1263FE
:100880004FEA022245EA111545EA10654FEA0026B3
:100890000EF000419D4208BF964244F1FD0404F56C
:1008A000407402D25B084FEA3202B61A65EB0305C8
:1008B0005B084FEA32024FF480104FF4002CB6EB85
:1008C000020E75EB030E22BFB61A754640EA0C0005
:1008D0005B084FEA3202B6EB020E75EB030E22BF45
:1008E000B61A754640EA5C005B084FEA3202B6EB86
:1008F000020E75EB030E22BFB61A754640EA9C0045
:100900005B084FEA3202B6EB020E75EB030E22BF14
:10091000B61A754640EADC0055EA060E18D04FEAD2
:10092000051545EA16754FEA06164FEAC30343EA72
:1009300052734FEAC2025FEA1C1CC0D111F4801F3F
:100940000BD141EA00014FF000004FF0004CB6E738
:1009500011F4801F04BF01430020B4F1FD0C88BFD7
:10096000BCF5E06F3FF6AFAEB5EB030C04BFB6EBE2
:10097000020C5FEA500C50F1000041EB045170BDD5
:100980000EF0004E4EEA113114EB5C04C2BFD4EB02
:100990000C0541EA045170BD41F480114FF0000E86
:1009A000013C90E645EA060E8DE60CEA135594EA02
:1009B0000C0F08BF95EA0C0F3FF43BAF94EA0C0F05
:1009C0000AD150EA01347FF434AF95EA0C0F7FF47A
:1009D00025AF104619462CE795EA0C0F06D152EACE
:1009E00003353FF4FDAE1046194622E750EA4106B2
:1009F00018BF52EA43067FF4C5AE50EA41047FF4C3
:100A00000DAF52EA43057FF4EBAE12E74FF0FF3C27
:100A100006E000BF4FF0010C02E000BF4FF0010CF8
:100A20004DF804CD4FEA410C7FEA6C5C4FEA430C71
:100A300018BF7FEA6C5C1BD001B050EA410C0CBFC0
:100A400052EA430C91EA030F02BF90EA020F002022
:100A5000704710F1000F91EA030F58BF994208BF89
:100A600090422CBFD8176FEAE37040F00100704746
:100A70004FEA410C7FEA6C5C02D150EA013C07D19D
:100A80004FEA430C7FEA6C5CD6D152EA033CD3D0E8
:100A90005DF8040B704700BF8446104662468C46E2
:100AA0001946634600E000BF01B5FFF7B7FF002815
:100AB00048BF10F1000F01BD4DF808EDFFF7F4FF3E
:100AC0000CBF012000205DF808FB00BF4DF808EDC9
:100AD000FFF7EAFF34BF012000205DF808FB00BFEC
:100AE0004DF808EDFFF7E0FF94BF012000205DF80E
:100AF00008FB00BF4DF808EDFFF7CEFF94BF0120C3
:100B000000205DF808FB00BF4DF808EDFFF7C4FFBB
:100B100034BF012000205DF808FB00BF4A0011D25D
:100B200012F5001211D20DD56FF47873B3EB625247
:100B30000ED44FEAC12343F0004343EA505323FA53
:100B400002F070474FF00000704750EA013002D1C8
:100B50004FF0FF3070474FF00000704753B94AB96B
:100B6000002908BF00281CBF4FF0FF314FF0FF30B5
:100B700000F074B9ADF1080C6DE904CE00F006F890
:100B8000DDF804E0DDE9022304B070472DE9F04709
:100B9000089D04468E46002B4DD18A42944669D961
:100BA000B2FA82F252B101FA02F3C2F1200120FA44
:100BB00001F10CFA02FC41EA030E94404FEA1C4892
:100BC000210CBEFBF8F61FFA8CF708FB16E341EA8E
:100BD000034306FB07F199420AD91CEB030306F114
:100BE000FF3080F01F81994240F21C81023E634435
:100BF0005B1AA4B2B3FBF8F008FB103344EA0344D9
:100C000000FB07F7A7420AD91CEB040400F1FF33ED
:100C100080F00A81A74240F207816444023840EA2A
:100C20000640E41B00261DB1D4400023C5E9004363
:100C30003146BDE8F0878B4209D9002D00F0EF80E6
:100C40000026C5E9000130463146BDE8F087B3FA19
:100C500083F6002E4AD18B4202D3824200F2F98001
:100C6000841A61EB030301209E46002DE0D0C5E904
:100C7000004EDDE702B9FFDEB2FA82F2002A40F050
:100C80009280A1EB0C014FEA1C471FFA8CFE012653
:100C9000200CB1FBF7F307FB131140EA01410EFBF7
:100CA00003F0884208D91CEB010103F1FF3802D29E
:100CB000884200F2CB804346091AA4B2B1FBF7F098
:100CC00007FB101144EA01440EFB00FEA64508D9BB
:100CD0001CEB040400F1FF3102D2A64500F2BB80F8
:100CE0000846A4EB0E0440EA03409CE7C6F1200747
:100CF000B34022FA07FC4CEA030C20FA07F401FA8D
:100D000006F31C43F9404FEA1C4900FA06F3B1FB15
:100D1000F9F8200C1FFA8CFE09FB181140EA01417A
:100D200008FB0EF0884202FA06F20BD91CEB010117
:100D300008F1FF3A80F08880884240F28580A8F16F
:100D400002086144091AA4B2B1FBF9F009FB1011C1
:100D500044EA014100FB0EFE8E4508D91CEB01015F
:100D600000F1FF346CD28E456AD90238614440EA02
:100D70000840A0FB0294A1EB0E01A142C846A64682
:100D800056D353D05DB1B3EB080261EB0E0101FA0B
:100D900007F722FA06F3F1401F43C5E90071002668
:100DA0003146BDE8F087C2F12003D8400CFA02FCBE
:100DB00021FA03F3914001434FEA1C471FFA8CFECE
:100DC000B3FBF7F007FB10360B0C43EA064300FBBE
:100DD0000EF69E4204FA02F408D91CEB030300F15C
:100DE000FF382FD29E422DD9023863449B1B89B213
:100DF000B3FBF7F607FB163341EA034106FB0EF39C
:100E00008B4208D91CEB010106F1FF3816D28B4248
:100E100014D9023E6144C91A46EA004638E72E4614
:100E2000284605E70646E3E61846F8E64B45A9D20C
:100E3000B9EB020864EB0C0E0138A3E74646EAE77B
:100E4000204694E74046D1E7D0467BE7023B614429
:100E500032E7304609E76444023842E7704700BF92
:100E600070B588B000240394049405940694079404
:100E7000394BDA6C42F00402DA64DA6C02F00402F4
:100E80000092009ADA6C42F00102DA64DA6C02F045
:100E900001020192019ADA6C42F00202DA64DB6C20
:100EA00003F002030293029B2C4E2246032130469C
:100EB00002F016FE224640F201214FF0904002F06F
:100EC0000FFE01224FF480714FF0904002F008FEB7
:100ED0004FF400530393224B0493059403A9304627
:100EE00002F09CFB032303930125049505940694CB
:100EF00003A9304602F092FB40F2013303930495BC
:100F00000594069403A94FF0904002F087FB082354
:100F1000039304940595A6F5806603A9304602F074
:100F20007DFB102303930F4B0493059503A93046D3
:100F300002F074FB224621460A2002F07DFF0A20BF
:100F400002F0C0FF22462146282002F075FF28202B
:100F500002F0B8FF08B070BD001002400008004861
:100F6000000021100000111070B50E461546002437
:100F700007E04FF47A7301223119044804F0CCF9E8
:100F80000134AC42F5DB284670BD00BF1C010020D7
:100F900072B6FEE708B51048104B03604FF4827339
:100FA0004360002383604FF4E062C260036101226A
:100FB00042614FF4007282613022C2610362436277
:100FC00083620722C2620363436303F0D3F800B96C
:100FD00008BDFFF7DDFF00BFB80000200030014072
:100FE00008B50B480B4B03604FF4E133436000231B
:100FF0008360C36003610C2242618361C361036249
:10100000436204F02DFA00B908BDFFF7C1FF00BF2D
:101010001C0100200044004010B592B000240D9443
:101020000E940F94109411940C942C22214601A834
:1010300007F056FA2748284B036044601F2383605B
:1010400040F2FF33C360046144618461C46100F015
:101050008FFA002836D100228DF834208DF8352003
:101060008DF83620109211920DA91A4800F03CFB21
:1010700050BB01238DF830308DF831308DF832308F
:1010800000228DF833200CA9124800F04FFCE8B97B
:1010900000228DF804208DF805208DF8062002929C
:1010A0000492059206920892099201238DF8283045
:1010B0004FF480730B9301A9064800F00DFD38B979
:1010C00012B010BDFFF764FFFFF762FFFFF760FF8C
:1010D000FFF75EFF940000200028004000B5B9B083
:1010E0004422002127A807F0FBF900212291239137
:1010F0002491259126918822684607F0F1F90A2269
:1011000027924FF480732A9310232B9301212C9163
:1011100002233193329333913492072235923693DE
:10112000379327A800F0D4FF00BB0F23229303239B
:1011300023930023249325932693042122A801F0CE
:10114000ABFBA8B94FF00213009300230F934FF4A9
:1011500000732193684601F0D3FE58B94FF4007034
:1011600002F074FD40B939B05DF804FBFFF710FFE1
:10117000FFF70EFFFFF70CFFFFF70AFF08B500F0BF
:10118000B1FEFFF7ABFFFFF76BFEFFF703FFFFF7C3
:1011900027FFFFF741FF07F049F80021084607F055
:1011A000CDF8642000F0C6FEF7E7FEE7FEE7FEE7B5
:1011B000FEE7FEE770477047704708B500F0A8FEED
:1011C00008BD08B5102002F0BBFC08BD08B54FF4FF
:1011D000005002F0B5FC08BD08B5024800F034F933
:1011E00008BD00BF9400002082B00A4B1A6E42F086
:1011F00001021A661A6E02F001020092009A9A6DBC
:1012000042F080529A659B6D03F080530193019BDD
:1012100002B070470010024008B50268094B9A42BC
:1012200000D008BD084AD2F8903043F40043C2F819
:10123000903000220121292002F0FEFD292002F039
:1012400041FEEEE7002800400010024000B589B0E2
:101250000023039304930593069307930268144BAA
:101260009A4202D009B05DF804FB03F560431A6EA0
:1012700042F480521A661A6E02F480520192019A68
:10128000DA6C42F00102DA64DB6C03F001030293D2
:10129000029BE02303930223049303230693052375
:1012A000079303A94FF0904002F0B8F9DAE700BFC6
:1012B0000030014008B50268074B9A4200D008BDD3
:1012C000064A136E23F480531366E0214FF09040DA
:1012D00002F02EFBF3E700BF003001400010024097
:1012E00070B588B000230393049305930693079386
:1012F0000268194B9A4201D008B070BD03F5E6337D
:101300009A6D42F400329A659A6D02F400320192AD
:10131000019ADA6C42F00102DA64DB6C03F001033B
:101320000293029B04230393022604960325069549
:101330000724079403A94FF0904002F06FF90823A7
:1013400003930496012305930695079403A94FF090
:10135000904002F063F9CFE70044004038B50446FE
:101360000D46B1F5807F02D0B1F5007F34D194F8FD
:101370002030012B62D0012384F82030022384F82E
:1013800021302368CA225A62236853225A62B5F573
:10139000807F27D02268936823F4007393602268CB
:1013A000936823F40053936000F0BEFD0546236864
:1013B000DB6813F0020F37D100F0B6FD431BB3F525
:1013C0007A7FF4D92368FF225A62032084F821002F
:1013D000002384F8203030E040F64201184805F040
:1013E000FFFCC4E72268936823F48073936022684B
:1013F000936823F48053936000F096FD05462368BC
:10140000DB6813F0010F0FD100F08EFD401BB0F52B
:101410007A7FF4D92368FF225A62032084F82100DE
:10142000002384F8203008E02368FF225A62012359
:1014300084F82130002084F8200038BD0220FCE729
:10144000C49900087047000010B50446154B4FF4CE
:1014500080225A6103689A6812F4805F03D0DA68C8
:1014600012F4807F0CD123689A6812F4005F03D0D5
:10147000DA6812F4007F0BD1012384F8213010BD0B
:10148000DA68D2B262F4C072DA60FFF7DBFFEAE733
:10149000DA68D2B262F42072DA60204600F0F9FC19
:1014A000EAE700BF0004014038B504460268D3688B
:1014B00023F0A003D36000F037FD05462368DB6806
:1014C00013F0200F07D100F02FFD401BB0F57A7FFD
:1014D000F4D9032000E0002038BD70B50368DA6855
:1014E00012F0400F02D00025284670BD04464FF090
:1014F000FF32DA6000F018FD064600252368DB683D
:1015000013F0400FF0D1032DEED000F00DFD831B42
:10151000B3F57A7FF2D9032584F82150EEE7000075
:1015200010B50446114BDA6822F08002DA609B683D
:1015300013F0200F07D1FFF7B7FF0346A0B1032335
:1015400084F8213010E0094A936823F02003936067
:10155000FFF7AAFF034610B1032384F821300349A3
:101560008A6842F020028A60184610BD00280040B8
:10157000002800F09E8038B5044602684E4B9A421F
:1015800003D0FE214D4805F02BFC6368402B00D0B2
:101590007BBBA3687F2B31D8E368B3F5004F33D210
:1015A000236943B1B3F5001F05D0B3F5800F02D016
:1015B000B3F5C00F2ED163690BB1022B30D1A369F3
:1015C00013B1B3F5801F31D1E369012B34D894F8FE
:1015D0002130002B36D0022384F821302368CA2220
:1015E0005A62236853225A622046FFF776FF78B387
:1015F00038BDFF21314805F0F3FBCAE74FF4807195
:101600002E4805F0EDFBC7E740F201112B4805F02D
:10161000E7FBC5E74FF48171284805F0E1FBCAE715
:1016200040F20311254805F0DBFBC8E74FF4827157
:10163000224805F0D5FBC7E740F205111F4805F029
:10164000CFFBC4E784F820302046FFF7E5FDC2E772
:101650002268936823F4E00323F040039360216839
:101660008A68636820690343A069034313438B605E
:101670002368E2681A6122681369A16843EA01439A
:1016800013612046FFF74CFF0028B1D12268D36CCC
:1016900023F00303D3642168CB6CE26965692A43B4
:1016A0001343CB642368FF225A62012384F821305C
:1016B0009EE70120704700BF00280040C499000841
:1016C000002302E001330A38C0B20928FAD81B010E
:1016D000DBB218437047030903EB830300F00F00EC
:1016E00000EB4300C0B2704770B504460D46164685
:1016F000012A38D8EB68B3F5003F04D0B3F5803F3A
:1017000001D0002B35D12B6913B1B3F5802F36D121
:1017100094F82030012B00F0D280012384F820308F
:10172000022384F821302368CA225A622368532294
:101730005A622046FFF7D1FE00285CD1002E77D1F7
:1017400023689B6813F0400F25D02B78013BDBB258
:101750000B2B1AD8EB78012B22D940F2BD515948F6
:1017600005F03EFB1CE04FF4B561564805F038FB30
:10177000C0E740F2A951534805F032FBC3E740F2FD
:10178000AA51504805F02CFBC2E740F2BC514D482D
:1017900005F026FBDEE70023EB702B78172B35D8FE
:1017A0006B783B2B38D8AB783B2B3BD82878FFF7AE
:1017B00087FF06046878FFF783FF46EA0026A878CB
:1017C000FFF77EFF3043EB7840EA8350236800F058
:1017D0007F3020F0FE4018602268936823F4802355
:1017E000936021688B68EA682869024313438B6021
:1017F0002046FFF795FE2368FF225A6210B90123A5
:1018000084F82130002384F8203070BD40F2C251AA
:101810002C4805F0E5FAC3E740F2C451294805F029
:10182000DFFAC0E740F2C551264805F0D9FABDE716
:1018300023689B6813F0400F13D02878FFF74BFF05
:1018400008B10C2804D94FF4BA611E4805F0C8FA53
:10185000EB78012B0CD940F2D1511A4805F0C0FAAF
:1018600006E00023EB702878FFF735FF172814D81F
:101870006878FFF730FF3B2815D8A878FFF72BFFD3
:101880003B2816D82B786878000240EA0340AB78F2
:101890001843EB7840EA835098E740F2D651094864
:1018A00005F09EFAE4E74FF4BB61064805F098FAAC
:1018B000E3E740F2D951034805F092FAE2E702204B
:1018C000A3E700BFC4990008F8B505460C461646C4
:1018D000012A23D82B689B6A63602B681B69C3F3BA
:1018E0000E03A3602B681B68C3F305402070C3F38D
:1018F0000627677003F07F05A570C3F38053E3707C
:1019000056B9FFF7E8FE20703846FFF7E4FE607036
:101910002846FFF7E0FEA0700020F8BD40F21561F8
:10192000014805F05DFAD5E7C499000870B5044692
:101930000D461646012A4DD894F82030012B00F0B0
:101940009D80012384F82030022384F821303EB9A1
:101950006B7813F0100F03D003F0EF030A336B70B2
:101960002B78013BDBB2062B3AD8002E50D1EB7816
:10197000632B3BD86B78013BDBB20B2B3CD8AB78AD
:10198000013BDBB21E2B3DD8E878FFF799FE060439
:101990006878FFF795FE46EA0026A878FFF790FEE4
:1019A00006432D7846EA45352368CA225A622368E1
:1019B00053225A622046FFF790FD002854D0236836
:1019C000FF225A6210B9012384F82130002384F8E1
:1019D000203070BD40F24261294805F001FAABE7C2
:1019E00040F24E61264805F0FBF9BEE740F2526135
:1019F000234805F0F5F9BDE740F25361204805F0B2
:101A0000EFF9BCE740F254611D4805F0E9F9BBE786
:101A1000E878FFF760FE632820D86878FFF75BFE60
:101A200008B10C2804D940F25E61154805F0D8F9D8
:101A3000A878FFF750FE08B11F2804D940F25F6173
:101A40000F4805F0CDF9EB786878000240EA0340D2
:101A5000AB7818432D7840EA4535A5E740F25D6143
:101A6000074805F0BDF9D8E7236825F07F4525F044
:101A7000C0055D602046FFF753FDA0E70220A8E700
:101A8000C4990008F8B506460C461546012A1BD82D
:101A900033685B68C3F30740E070C3F304276770E3
:101AA00003F03F06A670C3F34233237055B9FFF726
:101AB00012FEE0703846FFF70EFE60703046FFF70A
:101AC0000AFEA0700020F8BD40F29561014805F0C3
:101AD00087F9DDE7C4990008F8B504460D461646B7
:101AE000012A3BD8AB6AB3F5807F02D0B3F5007F03
:101AF0003AD16B6913F07F3F3CD12B6A13B1B3F13C
:101B0000804F3DD16B68B3F5004F3FD2EB6923B1F5
:101B100003F17F43B3F1606F3ED894F82030012B7E
:101B200000F09281012384F82030022384F82130D0
:101B3000002E40F0C18023689B6813F0400F37D01F
:101B40002B78013BDBB20B2B2CD8EB78012B34D953
:101B500040F29771AB4805F043F92EE040F28671F0
:101B6000A84805F03DF9BDE740F28771A54805F0AA
:101B700037F9BEE74FF4F161A24805F031F9BCE74F
:101B800040F289719F4805F02BF9BBE740F28A715A
:101B90009C4805F025F9B9E740F28B71994805F0AA
:101BA0001FF9BAE740F29671964805F019F9CCE7AB
:101BB0000023EB702B78172B5AD86B783B2B5DD812
:101BC000AB783B2B60D82B6A002B69D195F8243079
:101BD000013BDBB21E2B5DD82878FFF771FD0604B0
:101BE0006878FFF76DFD46EA0026A878FFF768FDE4
:101BF0000643E87846EA805695F82400FFF760FD32
:101C000046EA0066286A06436B691E436F68EB6903
:101C10001F432368CA225A62236853225A62AB6A5E
:101C2000B3F5807F00F0BD802268936823F40073D1
:101C300093602268D368DBB263F42073D36000F052
:101C400073F905462368DA6812F0020F40F0DC8071
:101C500000F06AF9401BB0F57A7FF3D92368FF22C0
:101C60005A62032084F82100002384F82030EAE03F
:101C700040F29C71634805F0B3F89EE740F29E7114
:101C8000604805F0ADF89BE740F29F715D4805F0B4
:101C9000A7F898E740F2A3715A4805F0A1F89BE72E
:101CA00095F82430013BDBB2062B95D940F2A771A1
:101CB000544805F095F88FE723689B6813F0400FB0
:101CC00013D02878FFF707FD08B10C2804D940F29B
:101CD000B6714C4805F084F8EB78012B0CD940F232
:101CE000B771484805F07CF806E00023EB702878CF
:101CF000FFF7F1FC17282AD86878FFF7ECFC3B289F
:101D00002BD8A878FFF7E7FC3B282CD82B6A83BB9D
:101D100095F82400FFF7DFFC08B11F2804D940F232
:101D2000C571384805F05CF82B786E78360246EAC3
:101D30000346AB781E43EB7846EA835695F8243089
:101D400046EA03662B6A1E436B691E435EE740F258
:101D5000BC712C4805F044F8CEE740F2BF71294829
:101D600005F03EF8CDE74FF4F861264805F038F865
:101D7000CCE795F82400FFF7AEFC0128D4D0022868
:101D8000D2D00328D0D00428CED00528CCD0062825
:101D9000CAD00728C8D040F2C9711A4805F020F807
:101DA000C2E72268936823F4807393602268D36843
:101DB000DBB263F4C073D36000F0B6F80546236865
:101DC000DA6812F0010F0FD100F0AEF8401BB0F549
:101DD0007A7FF4D92368FF225A62032084F8210015
:101DE000002384F820302EE0DE6123685F642268DF
:101DF000936843F4807393602268936843F480533C
:101E000093600EE0C49900081E6223689F642268F4
:101E1000936843F4007393602268936843F400531B
:101E200093600A4B1A6842F480221A609A6842F45E
:101E300080229A602368FF225A62012384F82130AD
:101E4000002084F82000F8BD0220FCE700040140D7
:101E500090F82030012B1AD0012280F82020022394
:101E600080F821300368CA215962036853215962FE
:101E700001688B6843F020038B600368FF2159627F
:101E800080F82120002380F8203018467047022077
:101E900070477047104B1B780BB90120704710B585
:101EA00004464FF47A70B0FBF3F30C4A1068B0FBB1
:101EB000F3F002F01FF868B90F2C01D901200AE0F5
:101EC000002221464FF0FF3001F0B6FF044B1C60AA
:101ED000002000E0012010BD0000002008000020CC
:101EE0000400002010B5094A136843F4807313609E
:101EF000032001F083FF0020FFF7CCFF10B1012485
:101F0000204610BD0446FFF76FF9F9E700200240B4
:101F1000034B1B78034A11680B441360704700BFE2
:101F200000000020A0010020014B1868704700BF8E
:101F3000A001002038B50446FFF7F6FF0546B4F1CE
:101F4000FF3F02D0044B1B781C44FFF7EDFF401B02
:101F5000A042FAD338BD00BF00000020024A5368F7
:101F600043F0010353607047002004E0024A5368C5
:101F700043F0020353607047002004E0024A5368B4
:101F800043F0040353607047002004E030B583B091
:101F90000446204B9B6D13F0805F0BD001F04EFE8A
:101FA000B0F5007F17D0802C1FD82DD0702C2DD0ED
:101FB00000211BE0174DAB6D43F08053AB65AB6D5B
:101FC00003F080530193019B01F038FEAB6D23F0C9
:101FD0008053AB65E4E7802C03D9A02C03D9022100
:101FE00004E0002102E0012100E003210A4A136815
:101FF00023F007030B431360136803F007038B42BE
:1020000006D1002003B030BD0221EFE70121EDE74A
:102010000120F7E70010024000200240284A9368A0
:10202000D26802F0030213F00C030AD00C2B06D086
:10203000042B1FD0082B20D00020024610E0012ADC
:10204000F6D11F4A126812F0080F0CD11C4AD2F8C0
:102050009420C2F303221B4951F8222043B10020EF
:102060000C2B0DD07047164A1268C2F30312F2E728
:102070001046F5E714480022F2E714480022EFE783
:102080000F4BDB6803F00303022B16D0032B00D1A8
:102090000E4A0B49C868C0F30210431CC868C0F35D
:1020A000062002FB00F0B0FBF3F0CB68C3F3416302
:1020B00001335B00B0FBF3F0D4E7034AE9E700BF6C
:1020C00000100240D49B00080024F40000127A00A3
:1020D000002800F0C783F0B583B00446036813B14D
:1020E00013F01F0F46D0944B9D6805F00C05DE6879
:1020F00006F00306236813F0100F00F09280A36926
:10210000012B3DD8E369FF2B40D8236AABB1102BDC
:1021100013D0202B11D0302B0FD0402B0DD0502BB3
:102120000BD0602B09D0702B07D0802B05D0902BC3
:1021300003D0A02B01D0B02B2ED1002D34D00C2DEC
:1021400030D0A369002B00F0DD807B4A136843F098
:1021500001031360FFF7E8FE0746774B1B6813F097
:10216000020F40F0BC80FFF7DFFEC01B0228F4D94D
:10217000032082E34FF4D171704804F031FEB2E7DE
:1021800040F2AB116D4804F02BFEBBE74FF4D67163
:102190006A4804F025FEB8E740F2AD11674804F044
:1021A0001FFECAE7012ECCD1634B1B6813F0020F50
:1021B00003D0A369002B00F05783206A5E4B1B6895
:1021C00013F0080F65D05C4B1B6803F0F0039842D6
:1021D00066D8594B1A6842F008021A601A6822F051
:1021E000F002216A0A431A605A6822F47F42E169C8
:1021F00042EA01225A60002D6AD0FFF70FFF4E4BD2
:102200009B68C3F303134E4AD35C03F01F03D8400B
:102210004C4B18604C4B1868FFF73CFE002840F010
:102220002C83236813F0010F00F09C8063682BB1AE
:10223000B3F5803F02D0B3F5A02F77D1082D00F081
:1022400088800C2D00F082806368B3F5803F00F039
:10225000B080B3F5A02F00F0B280374B1A6822F49B
:1022600080321A601A6822F480221A606368002B98
:1022700000F0B280FFF758FE07462F4B1B6813F49F
:10228000003F6FD1FFF750FEC01B6428F5D9032033
:10229000F3E2294BD3F894301B0903F0F00396E7DF
:1022A000FFF774FE002840F0E182234B1A6842F0E9
:1022B00008021A601A6822F0F002216A0A431A60C2
:1022C0005A6822F47F42E16942EA01225A6094E7A7
:1022D000206AFFF75BFE00288FD00120CDE2164B6D
:1022E0001A6842F008021A601A6822F0F002216AA5
:1022F0000A431A605A6822F47F42E16942EA0122E5
:102300005A608EE70C4A136823F001031360FFF74D
:102310000BFE0746084B1B6813F0020F81D0FFF736
:1023200003FEC01B0228F5D90320A6E240F21921C2
:10233000024804F055FD81E700100240FC990008B6
:10234000BC9B00080800002004000020032E7FF43E
:102350007BAFAB4B1B6813F4003F03D06368002BCB
:1023600000F08682236813F0020F63D0E36813B194
:10237000B3F5807F3FD123691F2B42D8042D48D06D
:102380000C2D44D0E368002B7ED09D4A136843F4A3
:1023900080731360FFF7C8FD0646994B1B6813F462
:1023A000806F68D1FFF7C0FD801B0228F5D903209C
:1023B00063E2934A136843F48033136056E703F1F2
:1023C0008043A3F53C331A6842F480221A601A68ED
:1023D00042F480321A6049E7FFF7A6FD0746884BB2
:1023E0001B6813F4003FBDD0FFF79EFDC01B64289F
:1023F000F5D9032041E24FF41371824804F0F0FC58
:10240000B9E740F24D217F4804F0EAFCB6E7022E1E
:10241000B8D17B4B1B6813F4806F03D0E368002BAB
:1024200000F02882764A536823F0F853216943EA82
:1024300001635360236813F0080F56D06369012BC2
:1024400036D86369002B39D06D4AD2F8943043F006
:102450000103C2F89430FFF767FD0646684BD3F8D6
:10246000943013F0020F40D1FFF75EFD801B02286D
:10247000F4D9032001E2624A536823F0F85321693A
:1024800043EA01635360D5E75D4A136823F4807320
:102490001360FFF749FD0646594B1B6813F4806F24
:1024A000C8D0FFF741FD801B0228F5D90320E4E1E5
:1024B00040F28D21534804F093FCC2E7504AD2F811
:1024C000943023F00103C2F89430FFF72DFD064647
:1024D0004B4BD3F8943013F0020F06D0FFF724FDD6
:1024E000801B0228F4D90320C7E1236813F0040FEE
:1024F00000F08D80A368012B01D9052B3BD1404B07
:102500009B6D13F0805F3CD13D4B9A6D42F0805241
:102510009A659B6D03F080530193019B01263A4B12
:102520001B6813F4807F2ED0A368012B3FD0052BAE
:1025300045D0334BD3F8902022F00102C3F890200D
:10254000D3F8902022F00402C3F89020A368002B57
:1025500043D0FFF7E9FC0746294BD3F8903013F03E
:10256000020F53D1FFF7E0FCC01B41F288339842C1
:10257000F2D9032081E14FF43871224804F030FC95
:10258000BDE70026CBE7204A136843F4807313604D
:10259000FFF7CAFC07461C4B1B6813F4807FC3D1AE
:1025A000FFF7C2FCC01B0228F5D9032065E1144ADD
:1025B000D2F8903043F00103C2F89030C6E7104BD8
:1025C000D3F8902042F00402C3F89020D3F8902072
:1025D00042F00102C3F89020B8E7FFF7A5FC0746D8
:1025E000074BD3F8903013F0020F0FD0FFF79CFC8D
:1025F000C01B41F288339842F2D903203DE100BF6D
:1026000000100240FC9900080070004086BBA36ADD
:10261000022B33D8A36A002B00F02E81022B33D07B
:102620000C2D00F03081994B1A6822F080721A60EC
:102630001B6813F0205F04D1944AD36823F003038E
:10264000D360924AD36823F0887323F48033D36035
:10265000FFF76AFC04468D4B1B6813F0007F00F007
:10266000FF80FFF761FC001B0228F4D9032004E17E
:10267000864A936D23F080539365C8E740F26E312C
:10268000834804F0ADFBC5E7E36A032B35D8236B21
:10269000013B072B37D8636B083B4E2B39D8A36B14
:1026A000072B01D0112B3AD1E36B022B05D0042B61
:1026B00003D0062B01D0082B37D1236C022B05D079
:1026C000042B03D0062B01D0082B34D16F4BDB68D1
:1026D00003F00301E26A914233D00C2D00F0CF8069
:1026E0006A4B1B6813F0806F40F0CB80674B1B6810
:1026F00013F0805F51D00120BFE040F27631644892
:1027000004F06EFBC3E740F27731614804F068FBE8
:10271000C1E74FF45E715E4804F062FBBFE740F230
:102720007A315B4804F05CFBBEE74FF45F715848B8
:1027300004F056FBC1E740F27D31554804F050FBF0
:10274000C4E703F07002216B0139B2EB011FC4D161
:1027500003F4FE42616BB2EB012FBED103F40031F2
:10276000A26B073A18BF01229142B6D103F4C0010F
:10277000E26B5208013AB1EB425FAED103F0C063A5
:10278000226C5208013AB3EB426FA6D13F4B1B6853
:1027900013F0007F4AD000206FE03C4A136823F01A
:1027A00080731360FFF7C0FB0546384B1B6813F0BE
:1027B000007F06D0FFF7B8FB401B0228F5D90320A5
:1027C0005BE0324AD36833491940E36A206B013831
:1027D00043EA0013606B43EA0023E06B40080138D2
:1027E00043EA4053206C4008013843EA4063A06B41
:1027F000000943EA40430B43D360136843F08073FE
:102800001360D36843F08073D360FFF78DFB0446F9
:102810001E4B1B6813F0007F06D1FFF785FB001BE2
:102820000228F5D9032028E0002026E0174B1A687B
:1028300042F080721A60DA6842F08072DA60FFF764
:1028400073FB0446114B1B6813F0007F06D1FFF7A2
:102850006BFB031B022BF5D903200EE000200CE0DC
:1028600000200AE001207047012006E0012004E07A
:10287000012002E0012000E0002003B0F0BD0120B3
:10288000FBE70120F9E70120F7E700BF0010024055
:10289000FC9900088C809DF9002800F0F58070B547
:1028A0000D4604460368013B0E2B28D8042D2CD876
:1028B000794B1B6803F00703AB420BD2764A1368CF
:1028C00023F007032B431360136803F00703AB42A5
:1028D00040F0DC80236813F0010F50D06368032BB5
:1028E00019D86368032B1CD0022B3AD0002B3FD1A0
:1028F0006A4A126812F0020F19D10120B1E040F2C9
:102900006241674804F06CFAD0E740F263416448E2
:1029100004F066FACCE740F27A41614804F060FACC
:10292000DFE75E4A126812F0007F00F0B1805B4979
:102930008A6822F0030213438B60FFF7F5FA06461C
:10294000564B9B6803F00C036268B3EB820F16D002
:10295000FFF7EAFA801B41F288339842F0D903204E
:102960007FE04E4A126812F4003FE0D1012078E087
:102970004A4A126812F4806FD9D1012071E02368AD
:1029800013F0020F18D0A3687BB1802B0DD0902BD1
:102990000BD0A02B09D0B02B07D0C02B05D0D02B4B
:1029A00003D0E02B01D0F02B5CD13C4A936823F09C
:1029B000F003A1680B439360374B1B6803F00703D8
:1029C000AB420AD9344A136823F007032B43136040
:1029D000136803F00703AB425CD1236813F0040FC4
:1029E00014D0E3685BB1B3F5806F08D0B3F5A06F86
:1029F00005D0B3F5C06F02D0B3F5E06F38D1274AE8
:102A0000936823F4E063E1680B439360236813F059
:102A1000080F15D023695BB1B3F5806F08D0B3F50B
:102A2000A06F05D0B3F5C06F02D0B3F5E06F25D12C
:102A30001A4A936823F46053216943EAC1039360FF
:102A4000FFF7ECFA154B9B68C3F30313154AD35CED
:102A500003F01F03D840144B1860144B1868FFF79D
:102A600019FA70BD4FF49B610D4804F0B9F99CE769
:102A70004FF49F610A4804F0B3F9C0E740F2FF4108
:102A8000074804F0ADF9D3E7012070470120E8E7DB
:102A90000120E6E70120E4E70020024000100240A8
:102AA000FC990008BC9B00080800002004000020DE
:102AB000014B1868704700BF0800002008B5FFF7F9
:102AC000F7FF054B9B68C3F30223044AD35C03F072
:102AD0001F03D84008BD00BF00100240CC9B000877
:102AE00008B5FFF7E5FF054B9B68C3F3C223044A13
:102AF000D35C03F01F03D84008BD00BF00100240A4
:102B0000CC9B0008F8B504460D460368032B24D877
:102B10006368013B072B26D8A368083B4E2B28D8B7
:102B2000A3697D4A134204D023F0887323F48033D1
:102B300023B140F66331794804F052F9784BDB68F1
:102B400013F0030F2AD0764BDB6803F003032268EF
:102B5000934214D001263046F8BD4FF436616F48D9
:102B600004F03EF9D4E740F661316C4804F038F9DE
:102B7000D2E740F66231694804F032F9D0E7002A22
:102B800000F0C780664BDB68C3F302130133626851
:102B9000934201D00126DEE7002609E02368022BDC
:102BA0005CD0032B61D0012B47D00126002ED2D15F
:102BB0005B4A136823F080631360FFF7B5F907469B
:102BC000574B1B6813F0006F05D0FFF7ADF9C31B1F
:102BD000022BF5D90326002EBDD1002D59D1E36873
:102BE000072B01D0112B4ED14D490B6923F41F3314
:102BF00023F44073A068E2681209520442EA0022FA
:102C000013430B61464A136843F080631360FFF778
:102C10008BF90546424B1B6813F0006F05D1FFF797
:102C200083F9401B0228F5D90326002E93D13C4A94
:102C30001369A1690B4313618DE7394A126812F0D9
:102C4000020F1ED03648C26822F073026168013953
:102C500043EA01131343C3600026A7E7304A126812
:102C600012F4806FEED10126A0E72D4A126812F40B
:102C7000003FE7D12A4A126812F4802FE2D10126E0
:102C800094E7012692E740F6B631244804F0A8F80C
:102C9000AAE7012D18D06369022B05D0042B03D0BD
:102CA000062B01D0082B2ED11D48026922F0C062EC
:102CB00022F4FE42A16863695B08013B5B0643EABC
:102CC0000123134303619DE72369022B05D0042BE5
:102CD00003D0062B01D0082B0FD11148026922F432
:102CE000C00222F4FE42A16823695B08013B5B0538
:102CF00043EA01231343036184E740F6DA310748CE
:102D000004F06EF8E9E740F6EC31044804F068F8A6
:102D1000CAE701261FE700BF00001101349A00082E
:102D200000100240F8B504460D460368032B24D872
:102D30006368013B072B26D8A368083B4E2B28D895
:102D400063696C4A134204D023F0807323F4803308
:102D500023B14FF44361684804F042F8674BDB68E5
:102D600013F0030F2AD0654BDB6803F003032268DE
:102D7000934214D001263046F8BD40F62D415E48FE
:102D800004F02EF8D4E740F62E415B4804F028F812
:102D9000D2E740F62F41584804F022F8D0E7002A45
:102DA00000F0A680554BDB68C3F302130133626861
:102DB000934201D00126DEE7002609E02368022BBA
:102DC0005CD0032B61D0012B47D00126002ED2D13D
:102DD0004A4A136823F080531360FFF7A5F80746AB
:102DE000464B1B6813F0005F05D0FFF79DF8C31B2F
:102DF000022BF5D90326002EBDD1002D59D1E36851
:102E0000072B01D0112B4ED13C494B6923F41F33C2
:102E100023F44073A068E2681209520442EA0022D7
:102E200013434B61354A136843F080531360FFF737
:102E30007BF80546314B1B6813F0005F05D1FFF7A7
:102E400073F8401B0228F5D90326002E93D12B4A94
:102E5000536961690B4353618DE7284A126812F088
:102E6000020F1ED02548C26822F073026168013942
:102E700043EA01131343C3600026A7E71F4A126801
:102E800012F4806FEED10126A0E71C4A126812F4FA
:102E9000003FE7D1194A126812F4802FE2D10126CF
:102EA00094E7012692E740F68341134803F098FF28
:102EB000AAE72369022B05D0042B03D0062B01D0EF
:102EC000082B0FD10D48426922F0C06222F4FE4265
:102ED000A16823695B08013B5B0643EA01231343B6
:102EE00043619FE740F6BB41034803F079FFE9E700
:102EF000012640E700000101349A0008001002405A
:102F00002DE9F04182B004460368C3F31303F3B123
:102F1000236813F4006F49D0636E43B1B3F5800F9B
:102F200005D0B3F5000F02D0B3F5400F14D1636E96
:102F3000B3F5000F2AD017D87BB3B3F5800F10D1AB
:102F4000002104F12000FFF7EDFE06462AE0CB2128
:102F50007A4803F045FFDBE7D321784803F040FFD0
:102F6000E5E701273E4623E0B3F5400F0BD10026ED
:102F7000734AD2F8883023F44003616E0B43C2F8E1
:102F80008830002714E001273E4611E06C4AD368E0
:102F900043F48033D3600026EAE70021201DFFF7C9
:102FA000B1FD0646002EE3D0374601E000273E463D
:102FB000236813F4805F41D0A36E43B1B3F1807FE7
:102FC00005D0B3F1007F02D0B3F1407F0FD1A36EE3
:102FD000B3F1007F25D013D84BB3B3F1807F0CD170
:102FE000002104F12000FFF79DFE06460BE040F2B1
:102FF0001111524803F0F4FEE9E701273E461DE0B7
:10300000B3F1407F0AD1C6B94D4AD2F8883023F0D7
:103010004073A16E0B43C2F888300FE001273E4693
:103020000CE0474AD36843F48033D360EBE70021D8
:10303000201DFFF767FD0646E5E73746236813F4D2
:10304000003F00F08680D4F8843043B1B3F5807F30
:1030500005D0B3F5007F02D0B3F5407F53D1384B94
:103060009B6D13F0805F54D1354B9A6D42F08052C6
:103070009A659B6D03F080530193019B4FF001080B
:10308000304A136843F480731360FEF74DFF054622
:103090002C4B1B6813F4807F05D1FEF745FF401BC6
:1030A0000228F5D90326002E4ED1254BD3F89030B7
:1030B00013F4407316D0D4F884209A4212D0204AD8
:1030C000D2F8903023F44073D2F8901041F480315C
:1030D000C2F89010D2F8901021F48031C2F890100C
:1030E000C2F8903013F0010F16D1002E40F0E681A7
:1030F000134AD2F8903023F44073D4F884100B4371
:10310000C2F8903021E04FF4A3710C4803F068FE40
:10311000A5E74FF00008B3E7FEF706FF0546084BAA
:10312000D3F8903013F0020FDFD1FEF7FDFE401B05
:1031300041F288339842F2D90326D6E7349A000840
:1031400000100240007000403746B8F1000F40F018
:10315000B781236813F0010F10D0A36B012B04D9A2
:10316000032B02D0022B40F0B181A34AD2F8883061
:1031700023F00303A16B0B43C2F88830236813F0DC
:10318000020F11D0E36B33B1042B04D00C2B02D00F
:10319000082B40F0A181984AD2F8883023F00C0324
:1031A000E16B0B43C2F88830236813F0040F11D091
:1031B000236C33B1102B04D0302B02D0202B40F0E5
:1031C00091818D4AD2F8883023F03003216C0B4373
:1031D000C2F88830236813F0080F11D0636C33B144
:1031E000402B04D0C02B02D0802B40F08181824A3A
:1031F000D2F8883023F0C003616C0B43C2F88830EA
:10320000236813F0100F14D0A36C4BB1B3F5807F7B
:1032100006D0B3F5407F03D0B3F5007F40F06E8158
:10322000754AD2F8883023F44073A16C0B43C2F87E
:103230008830236813F0200F14D0E36C4BB1B3F542
:10324000806F06D0B3F5406F03D0B3F5006F40F048
:103250005B81694AD2F8883023F44063E16C0B4308
:10326000C2F88830236813F4007F14D0E36D4BB1AB
:10327000B3F5802F06D0B3F5002F03D0B3F5402F60
:1032800040F048815C4AD2F8883023F44023E16D55
:103290000B43C2F88830236813F4806F14D0236E78
:1032A0004BB1B3F5801F06D0B3F5001F03D0B3F5C3
:1032B000401F40F03581504AD2F8883023F4401343
:1032C000216E0B43C2F88830236813F0400F11D0F1
:1032D000236D33B1B3F5805F03D0B3F5005F40F0E9
:1032E0002581454AD2F8883023F44053216D0B43A1
:1032F000C2F88830236813F0800F11D0636D33B1AA
:10330000B3F5804F03D0B3F5004F40F015813A4A32
:10331000D2F8883023F44043616D0B43C2F8883003
:10332000236813F4807F11D0A36D33B1B3F5803FD0
:1033300003D0B3F5003F40F005812F4AD2F8883022
:1033400023F44033A16D0B43C2F88830236813F493
:10335000005F1DD0E36E4BB1B3F1806F06D0B3F1C7
:10336000006F03D0B3F1406F40F0F280224AD2F8F0
:10337000883023F04063E16E0B43C2F88830E36E7F
:10338000B3F1006F00F0EA80B3F1806F00F0EB80E2
:10339000236813F4002F1DD0236F4BB1B3F1806F5E
:1033A00006D0B3F1006F03D0B3F1406F40F0E4807A
:1033B000114AD2F8883023F04063216F0B43C2F8E2
:1033C0008830236FB3F1006F00F0DC80B3F1806FC1
:1033D00000F0DD80236813F4802F21D0636F6BB180
:1033E000B3F1806F0AD0B3F1006F07D0B3F1406F33
:1033F00040F0D68002E000BF00100240854AD2F8BB
:10340000883023F04063616F0B43C2F88830636FEC
:10341000B3F1006F00F0CA80B3F1806F00F0CB8091
:10342000236813F4804F1DD0A36F4BB1B3F1805FBD
:1034300006D0B3F1005F03D0B3F1405F40F0C48029
:10344000744AD2F8883023F04053A16F0B43C2F87E
:103450008830A36FB3F1805F00F0BC80B3F1005FF0
:1034600000F0C180236813F4004F0ED0E36F1BB14E
:10347000B3F1804F40F0C180664AD2F8883023F023
:103480008043E16F0B43C2F88830236813F4803F18
:1034900010D0D4F880301BB1B3F1004F40F0B380AE
:1034A0005C4AD2F8883023F00043D4F880100B43F4
:1034B000C2F88830384602B0BDE8F081374644E6AD
:1034C000544A936D23F08053936542E640F29B117A
:1034D000514803F085FC48E640F2A5114E4803F040
:1034E0007FFC58E640F2B1114B4803F079FC68E6E6
:1034F00040F2BF11484803F073FC78E640F2CD116A
:10350000454803F06DFC8BE640F2D911424803F0C8
:1035100067FC9EE64FF4F1713F4803F061FCB1E6B1
:1035200040F2E9113C4803F05BFCC4E640F2F111C3
:10353000394803F055FCD4E640F2FD11364803F05B
:103540004FFCE4E640F20921334803F049FCF4E67D
:1035500040F22221304803F043FC07E7D36843F4EC
:103560008013D36014E70121201DFFF7CBFA002858
:103570003FF40EAF07460BE740F24321264803F025
:103580002FFC15E7D36843F48013D36022E70121B1
:10359000201DFFF7B7FA00283FF41CAF074619E7D4
:1035A0004FF41A711C4803F01BFC27E7D36843F45F
:1035B0008013D36034E70121201DFFF7A3FA002810
:1035C0003FF42EAF07462BE74FF42271124803F069
:1035D00007FC35E70221201DFFF794FA00283FF48D
:1035E00041AF07463EE7022104F12000FFF79AFBB6
:1035F00000283FF437AF074634E74FF42D710648F3
:1036000003F0EEFB38E740F2C221034803F0E8FB89
:1036100046E700BF00100240349A00082DE9F0434D
:1036200083B005460C46B0F1904F1ED0384B9842FF
:103630001BD003F58063984217D003F5806398424E
:1036400013D003F5806398420FD003F5806398424E
:103650000BD003F58063984207D003F5806398424E
:1036600003D0B3212B4803F0BBFB23689AB212B1FD
:103670001B0C1B041BB1B421264803F0B1FB63688B
:10368000012B20D9112B1ED0022B1CD0122B1AD0AB
:10369000214A934217D002F58012934213D002F5CB
:1036A000801293420FD0A2F5F81293420BD002F58C
:1036B0008012934207D002F58012934203D0032B6D
:1036C00001D00B2B04D1A368022B06D800265AE0A8
:1036D000B521104803F084FBF5E7B6210D4803F04F
:1036E0007FFBF3E7C6210B4803F07AFB62E0EA6A4E
:1036F00022EA0808C3F3C003B34043EA0803EB62BD
:1037000070E0ED21034803F06BFBA5E0062306E023
:10371000000400486C9A00080000111000238B4040
:10372000034302327D4941F822307D4B1A68FB4346
:1037300022EA0701606810F4803F01D047EA0201E5
:10374000774A1160526803EA0201606810F4003F92
:1037500001D047EA0201724A5160926803EA02010D
:10376000606810F4801F01D047EA02016C4A916042
:10377000D2681340616811F4001F01D047EA0203C8
:10378000674AD3600136276837FA06F300F0C28033
:103790004FF0010808FA06F818EA0707F2D0636844
:1037A0005A1E012A03D9112B01D0122B15D1E3681F
:1037B000032B97D8AA68710003238B4022EA0302E7
:1037C000E3688B401343AB606A6822EA08026368CF
:1037D000C3F30013B34013436B60636803F0030249
:1037E000032A84D0EA684FEA4608032303FA08F361
:1037F0006FEA030922EA0302A36803FA08F31343FA
:10380000EB606368022B01D0122B35D1B5F1904FDC
:103810001ED0444B9D421BD003F580639D4217D0C0
:1038200003F580639D4213D003F580639D420FD062
:1038300003F580639D420BD003F580639D4207D062
:1038400003F580639D4203D0EC21374803F0C8FAAA
:1038500023690F2B3FF655AFF208083255F82200C6
:1038600006F0070399000F238B4020EA0300236929
:103870008B40034345F822302B6809EA030963684B
:1038800003F0030303FA08F343EA09032B606368B8
:1038900013F0805F3FF476AF244B1A6E42F00102C2
:1038A0001A661B6E03F001030193019BB208911C81
:1038B0001A4B53F8210006F0030399000F238B40A5
:1038C00020EA0300B5F1904F3FF428AF154B9D421D
:1038D00016D003F580639D4214D003F580639D42AA
:1038E00012D003F580639D4210D003F580639D42A2
:1038F0000ED003F580639D423FF408AF07230EE727
:1039000001230CE702230AE7032308E7042306E761
:10391000052304E703B0BDE8F08300BF00000140C9
:1039200000040140000400486C9A000800100240A6
:10393000F8B504460D46B0F1904F1FD05A4B98424F
:103940001CD003F58063984218D003F58063984239
:1039500014D003F58063984210D003F58063984239
:103960000CD003F58063984208D003F58063984239
:1039700004D04FF49F714D4803F032FAABB213B14B
:103980002B0C1B0423B140F23F11484803F028FAE6
:1039900000232FE0062600E0002606FA01F181420E
:1039A00065D020685900032606FA01F1084320601B
:1039B00023FA06F0083054F8206003F0070C4FEAB1
:1039C0008C0E4FF00F0C0CFA0EFC26EA0C0644F895
:1039D0002060A06820EA0100A060606820EA020080
:1039E0006060E06820EA0101E160E16A21EA020228
:1039F000E262013335FA03F254D001229A4012EA0E
:103A00000507F6D04FEA930E0EF10200284951F84F
:103A1000200003F0030189000F2606FA01FC0CEADE
:103A20000000B4F1904FB7D01F4EB44215D006F548
:103A30008066B44213D006F58066B44211D006F514
:103A40008066B4420FD006F58066B4420DD006F50C
:103A50008066B4429ED007269FE701269DE7022696
:103A60009BE7032699E7042697E7052695E7114982
:103A7000086820EA07000860486820EA07004860F4
:103A8000886820EA07008860C86820EA0707CF60D6
:103A900007480EF1020150F8216026EA0C0640F8B2
:103AA00021607EE7F8BD00BF000400486C9A000862
:103AB000000001400004014038B504460D4621B124
:103AC00023691D4207D0012038BD4FF4C971034856
:103AD00003F086F9F4E70020F6E700BF6C9A0008CF
:103AE00070B5054614460E4621B1012C08D86CB1BC
:103AF000AE6170BD4FF4D971054803F071F9F4E778
:103B000040F2B311024803F06BF9F0E7AE62F0E760
:103B10006C9A000838B505460C4641B16B6904EA59
:103B2000030224EA030444EA0244AC6138BD4FF4C2
:103B3000E571024803F054F9F0E700BF6C9A000801
:103B400008B5054B5B69034200D108BD024B5861C3
:103B500003F0F0FBF9E700BF0004014090F82530C6
:103B6000DBB2022B06D00423C363002380F8243089
:103B7000012070470268136823F00E031360026887
:103B8000136823F001031360436C03F01C03016C02
:103B9000012202FA03F34B6080F82520002380F80D
:103BA00024301846704708B590F82530DBB2022B58
:103BB00003D00423C363012008BD0268136823F007
:103BC0000E0313600268136823F001031360436C53
:103BD00003F01C03016C012202FA03F34B6080F82E
:103BE0002520002380F82430836B13B198470020F0
:103BF000E2E70020E0E70000024A536823F00103F7
:103C0000536070470070004038B50C46054610B14F
:103C1000B0F5804F06D1B5F5804F09D0204600F0B1
:103C20006BF838BD40F20F21034803F0D9F8F2E7F2
:103C3000204600F08BF8F4E7A49A0008024B1868BD
:103C400000F4C060704700BF0070004010B504462B
:103C5000B0F5007F02D0B0F5806F12D1B4F5007FCF
:103C600014D0214B1B6803F4C063B3F5806F39D0C7
:103C70001D4A136823F4C06343F48063136000207B
:103C800010BDA821194803F0ABF8E7E7164B1B68F5
:103C900003F4C063B3F5007F20D0134A136823F404
:103CA000C06343F400731360114B1B68322202FBA4
:103CB00003F3104AA2FB03239B0C013300E0013BFA
:103CC000094A526912F4806F01D0002BF7D1064BDC
:103CD0005B6913F4806F03D10020D1E70020CFE7A8
:103CE0000320CDE70020CBE700700040DC9A0008FD
:103CF0000800002083DE1B4310B50446431EDBB2E0
:103D0000012B14D80E4A136823F0070313600D4AE1
:103D1000136943F004031361012C0ED040BF20BF90
:103D200020BF084A136923F00403136110BD4FF448
:103D30009561054803F054F8E4E730BFF1E700BFB0
:103D40000070004000ED00E0DC9A000810B5044669
:103D5000431EDBB2012B16D80F4A136823F007036A
:103D600043F0010313600D4A136943F00403136128
:103D7000012C0ED040BF20BF20BF084A136923F09A
:103D80000403136110BD40F2DB41054803F028F83D
:103D9000E2E730BFF1E700BF0070004000ED00E057
:103DA000DC9A000810B50446431EDBB2012B16D87E
:103DB0000F4A136823F0070343F0020313600D4A10
:103DC000136943F004031361012C0ED040BF20BFE0
:103DD00020BF084A136923F00403136110BD4FF498
:103DE000A261054802F0FCFFE2E730BFF1E700BF47
:103DF0000070004000ED00E0DC9A000810B50446B9
:103E0000C31E042B0FD80A4AD36823F4E0631B04B3
:103E10001B0C240204F4E064234343F0BF6343F427
:103E20000033D36010BDA721024802F0D9FFEAE7B2
:103E300000ED00E0149B000870B505460C461646E0
:103E40000F2A25D80F2C28D81B4BDB68C3F302237D
:103E5000C3F10701042928BF04211A1D062A21D90C
:103E6000033B4FF0FF3202FA01F124EA01049C40C7
:103E700002FA03F326EA03063443002D14DB24017F
:103E8000E4B205F1604505F5614585F8004370BD74
:103E9000BF210A4802F0A4FFD4E7C021074802F07E
:103EA0009FFFD1E70023DCE705F00F052401E4B212
:103EB000034B5C55EBE700BF00ED00E0149B0008EE
:103EC00014ED00E010B5041E0ADB002C07DB04F043
:103ED0001F02640901239340044A42F8243010BDB4
:103EE000D321034802F07CFFEFE700BF00E100E0D0
:103EF000149B00080138B0F1807F0BD24FF0E02313
:103F00005861054AF02182F82310002098610722A9
:103F10001A6170470120704700ED00E010B50446BB
:103F2000042800D040B9042C0CD04FF0E0221369D3
:103F300023F00403136110BD4FF4C271054802F071
:103F40004FFFF0E74FF0E022136943F004031361E1
:103F5000F1E700BF149B00082DE9F04782B0054649
:103F6000884617461E46FDF7DFFF0A9B1B1A03EB28
:103F70000609FDF7D9FF82462B4B1B68C3F3CB33F1
:103F800009FB03F301932B689C6838EA04030CBF18
:103F90004FF0010C4FF0000CBC4540D0B6F1FF3F94
:103FA000F1D0FDF7C1FFA0EB0A0048450AD2B9F1F4
:103FB000000F07D0019A02B14A46019B013B0193D1
:103FC0009146E0E72A68536823F0E00353606B688A
:103FD000B3F5827F0BD0AB6AB3F5005F14D0012339
:103FE00085F85D30002385F85C30032018E0AB686D
:103FF000B3F5004F02D0B3F5806FECD12A68136897
:1040000023F040031360E6E72A68136823F40053A3
:1040100013602A68136843F400531360DFE700203D
:1040200002B0BDE8F08700BF080000202DE9F0478E
:1040300082B007460D4616469846FDF775FF0A9B67
:104040001B1A03EB0809FDF76FFF82462F4B1B6815
:1040500003EB8303C3EBC3031B0D09FB03F30093C3
:1040600002E0B8F1FF3F0FD13B689C6804EA050C01
:10407000B44547D0B5F5C06FF3D1002EF1D11B7B0D
:10408000DBB20193019BECE7FDF74EFFA0EB0A00CA
:1040900048450AD2B9F1000F07D0009A02B14A464A
:1040A000009B013B00939146DEE73A68536823F09A
:1040B000E00353607B68B3F5827F0BD0BB6AB3F536
:1040C000005F14D0012387F85D30002387F85C304F
:1040D000032018E0BB68B3F5004F02D0B3F5806F42
:1040E000ECD13A68136823F040031360E6E73A68BE
:1040F000136823F4005313603A68136843F40053C1
:104100001360DFE7002002B0BDE8F0870800002060
:1041100070B582B004460D46164600920B4600224A
:104120004FF4C051FFF782FFB0B900962B46002232
:1041300080212046FFF710FFA8B900962B460022E9
:104140004FF4C0612046FFF771FF50B1236E43F07A
:1041500020032366032004E0236E43F0200323663C
:10416000032002B070BD236E43F0200323660320BA
:10417000F7E70000002800F04A8110B50446036804
:10418000994A93420CD0A2F57842934208D002F5A6
:104190008062934204D040F24711944802F020FE1E
:1041A000636813B1B3F5827F65D1A3682BB1B3F512
:1041B000806F02D0B3F5004F63D1E368B3F5706F41
:1041C00023D0B3F5606F20D0B3F5506F1DD0B3F599
:1041D000406F1AD0B3F5306F17D0B3F5206F14D0FD
:1041E000B3F5106F11D0B3F5006F0ED0B3F5E06FDB
:1041F0000BD0B3F5C06F08D0B3F5A06F05D0B3F501
:10420000806F02D0B3F5407F41D1A369B3F5007F41
:1042100003D013B1B3F5802F3FD1636B082B01D0CE
:10422000002B40D1E3696BB1082B0BD0102B09D0C8
:10423000182B07D0202B05D0282B03D0302B01D0F2
:10424000382B36D1236A0BB1802B38D1636A0BB17E
:10425000102B3AD1636A002B5FD123690BB1022B7B
:1042600039D16369012B3CD86368B3F5827F3ED0B6
:104270000023E36164E04FF4A4715C4802F0B0FDF8
:1042800093E740F24911594802F0AAFD95E74FF42F
:10429000A571564802F0A4FDB7E740F24B11534810
:1042A00002F09EFDB9E74FF4A671504802F098FD68
:1042B000B8E740F24D114D4802F092FDC2E74FF4CD
:1042C000A7714A4802F08CFDC0E740F24F11474801
:1042D00002F086FDBEE74FF4A971444802F080FD6C
:1042E000BFE740F25311414802F07AFDBCE7E369B1
:1042F00033B3082B24D0102B22D0182B20D0202B06
:104300001ED0282B1CD0302B1AD0382B18D040F2BE
:104310005711364802F064FD12E0E3696BB1082BD7
:104320000BD0102B09D0182B07D0202B05D0282B11
:1043300003D0302B01D0382B5AD100232361636185
:104340000023A36294F85D30002B57D0022384F839
:104350005D302268136823F040031360E368B3F50F
:10436000E06F51D90022B3F5706F04D0B3F5E06F60
:1043700001D00023A362636803F48273A16801F48F
:1043800004410B43216901F002010B43616901F013
:1043900001010B43A16901F400710B43E16901F0D4
:1043A00038010B43216A01F080010B43A16A01F43B
:1043B000005120680B430360638B03F00403616AC0
:1043C00001F010010B43616B01F008010B43E16840
:1043D00001F470610B43216813434B600020206699
:1043E000012384F85D3010BD003001404C9B000873
:1043F00040F26111074802F0F3FC9EE784F85C305C
:104400002046FCF723FFA1E74FF48052ABE70120E1
:10441000704700BF4C9B000820B310B504460368EA
:10442000114A93420CD0A2F57842934208D002F58B
:104430008062934204D04FF4FA710C4802F0D0FC31
:10444000022384F85D302268136823F04003136070
:104450002046FCF72FFF0020206684F85D0084F8DA
:104460005C0010BD01207047003001404C9B0008EB
:104470002DE9F8430446884691461F46089D836807
:10448000002B66D194F85C30012B00F0678101238A
:1044900084F85C30FDF748FD064694F85D30DBB2E9
:1044A0006268012B0AD0B2F5827F40F03E81A2689B
:1044B000002A40F04381042B40F04281B8F1000F04
:1044C00000F04081B9F1000F00F03E81002F00F0B4
:1044D0003D8194F85D30DBB2042B02D0052384F8D3
:1044E0005D3000232366C4F84090A4F84670A4F819
:1044F0004470C4F83880E787A787E3642365E368DE
:10450000B3F5E06F01D8012F29D92268536823F44D
:104510008053536023681A6812F0400F03D11A6861
:1045200042F040021A60E368B3F5E06F5ED9636859
:104530000BB1012F0BD1A26B23681288DA60A36B39
:104540000233A363E38F9BB2013B9BB2E387012756
:1045500037E040F2F141824802F042FC92E72268E3
:10456000536843F480535360D4E7A26B1288DA6037
:10457000A36B0233A363E38F9BB2013B9BB2E38740
:10458000002723689A6812F0010F11D0B4F8462072
:1045900092B26AB1DA68236C1A80236C0233236406
:1045A000B4F846309BB2013B9BB2A4F846300127D9
:1045B000FDF7BAFC831BAB4203D3B5F1FF3F40F0DC
:1045C000C780E38F9BB22BB9B4F846309BB2002B67
:1045D00000F0A18023689A6812F0020FD1D0E28F18
:1045E00092B2002ACDD0002FCBD0BEE763680BB1CA
:1045F000012F0FD1E38F9BB2012B0DD9A26B236842
:104600001288DA60A36B0233A363E38F9BB2023B91
:104610009BB2E387012749E0A26B236812781A73E3
:10462000A36B0133A363E38F9BB2013B9BB2E38790
:10463000F0E7E28F92B2012A0CD9A26B1288DA60FD
:10464000A36B0233A363E38F9BB2023B9BB2E3876E
:1046500000273DE0A26B12781A73A36B0133A363AA
:10466000E38F9BB2013B9BB2E387002730E02268D7
:10467000536843F48053536001270DE0226C1B7B89
:104680001370236C01332364B4F846309BB2013BB2
:104690009BB2A4F846300127FDF746FC801BA842D8
:1046A00002D3B5F1FF3F55D1002D55D0E38F9BB21A
:1046B00023B9B4F846309BB2002B2CD023689A68FB
:1046C00012F0020F04D0E28F92B20AB1002FB0D1E3
:1046D00023689A6812F0010FDED0B4F8462092B237
:1046E000002AD9D0B4F8462092B2012AC6D9DA6895
:1046F000236C1A80236C02332364B4F846309BB2D7
:10470000023B9BB2A4F84630B4F846309BB2012B72
:10471000ADD90127C0E7324629462046FFF7F8FC0D
:1047200020B120232366012000E00220012384F829
:104730005D30002384F85C30BDE8F8830220F5E7A3
:104740000220F3E70120F1E70120EFE70120EDE788
:104750000320EBE70320E9E70320E7E70220EBE78C
:104760004C9B00080268136823F49073136002687E
:10477000936823F001039360036E012B05D020237F
:10478000C36700230366436670470268136823F01B
:1047900010031360F3E7836F212B00D07047B0F84C
:1047A00052309BB253B90268136823F08003136040
:1047B0000268136843F0400313607047C26C0368DB
:1047C00012781A85C36C0133C364B0F852309BB2BF
:1047D000013B9BB2A0F85230E0E7836F212B00D061
:1047E0007047B0F852309BB253B90268136823F097
:1047F000800313600268136843F04003136070473E
:10480000C36C1B880268C3F308031385C36C0233AF
:10481000C364B0F852309BB2013B9BB2A0F8523057
:10482000DEE70000836F202B29D151B35AB390F8F3
:104830007430012B29D0012380F87430C164A0F8B2
:104840005020A0F8522000238366C0F88030212336
:1048500083678368B3F5805F0BD00D4B83660023BD
:1048600080F8743001680A6842F080020A601846D5
:1048700070470369002BF0D1064B8366EFE70220F7
:10488000704701207047012070470220704700BF29
:1048900097470008DB47000808B501680A6822F05E
:1048A00040020A60202282670022826603F00EFC2A
:1048B00008BD08B5806A0023A0F85A30A0F852302D
:1048C00003F040FC08BD704770B504460168CB6931
:1048D00008688D6840F60F021A4005D113F0200FCA
:1048E00002D010F0200F20D12AB115F0010222D100
:1048F000944E30421FD1226E012A00F0A28013F4A0
:10490000801F03D015F4800F40F00A8113F0800F50
:1049100003D010F0800F40F00A8113F0400F03D055
:1049200010F0400F40F00A8170BD636E002BFBD089
:1049300020469847F8E713F0010F09D010F4807F64
:1049400006D001250D62D4F880102943C4F88010E8
:1049500013F0020F09D042B1216802250D62D4F88C
:10496000801041F00401C4F8801013F0040F09D046
:1049700042B1216804250D62D4F8801041F0020193
:10498000C4F8801013F0080F0BD010F0200F00D1E6
:104990003AB1226808211162D4F880200A43C4F891
:1049A000802013F4006F0CD010F0806F09D02268C3
:1049B0004FF400611162D4F8802042F02002C4F864
:1049C0008020D4F88020002AAED013F0200F06D02B
:1049D00010F0200F03D0636E0BB120469847D4F837
:1049E000802023689B6813F0400F02D112F0280F3B
:1049F00020D02046FFF7B6FE23689A6812F0400FD9
:104A000014D09A6822F040029A60236F53B14E4A44
:104A10009A63206FFFF7C7F8002885D0206F836B5B
:104A2000984781E7204603F08DFB7DE7204603F0A1
:104A300089FB79E7204603F085FB0023C4F880302A
:104A400072E713F0100F3FF45AAF10F0100F3FF45D
:104A500056AF10230B622268936813F0400F38D0D2
:104A6000216F0B685B689BB2002B3FF45DAFB4F81D
:104A7000580098427FF658AFA4F85A300B681B686C
:104A800013F0200F0AD0B4F85810B4F85A309BB283
:104A9000C91A89B22046FFF716FF45E7136823F4C9
:104AA000807313602268936823F001039360226887
:104AB000936823F0400393602023E3670023236679
:104AC0002268136823F010031360206FFFF746F885
:104AD000D9E7B4F85810B4F85A309BB2C91A89B261
:104AE000B4F85A309BB2002B3FF41EAF00293FF4BC
:104AF0001BAF136823F4907313602268936823F04C
:104B0000010393602023E367002323666366226822
:104B1000136823F0100313602046FFF7D4FE03E769
:104B20004FF480130B62204600F090FDFCE6A36E6C
:104B3000002B3FF4F9AE20469847F5E62046FFF7F4
:104B4000ABFEF1E620010004B348000810B50446AE
:104B5000B0F85C30C26F222A06D00268138B9BB279
:104B600043F00803138310BD0268918CDBB2426DE1
:104B70000B401370436D01334365B0F85A309BB25C
:104B8000013B9BB2A0F85A30B0F85A309BB2002BD0
:104B9000E9D10268136823F4907313600268936884
:104BA00023F0010393602023C36700234366036E51
:104BB000012B04D003F0A8FA00232366D3E7026890
:104BC000136823F010031360B0F85810FFF77BFE52
:104BD000F2E710B50446B0F85C30C26F222A06D066
:104BE0000268138B9BB243F00803138310BD026865
:104BF000918C426D0B401380436D02334365B0F8D6
:104C00005A309BB2013B9BB2A0F85A30B0F85A30F0
:104C10009BB2002BEAD10268136823F490731360EF
:104C20000268936823F0010393602023C367002385
:104C30004366036E012B04D003F066FA002323665B
:104C4000D4E70268136823F010031360B0F858101B
:104C5000FFF739FEF2E7000010B5044642688C4BBE
:104C60009A4275D8A368B3F1805F03D013B1B3F54E
:104C7000805F73D12268874B9A4275D0E368B3F5A1
:104C8000805F06D02BB1B3F5405F02D0B3F5005F73
:104C900076D1236A13B1B3F5006F77D123692BB1B5
:104CA000B3F5806F02D0B3F5C06F75D1636933F08F
:104CB0000C0200D123B940F65241774802F090F837
:104CC000A36943B1B3F5807F05D0B3F5007F02D06F
:104CD000B3F5407F66D1E36913B1B3F5004F67D1F7
:104CE000A3682269134362691343E269134321688D
:104CF00008686A4A024013430B602268536823F431
:104D00004053E1680B435360A1692268614B9A42AA
:104D100001D0236A1943936823F430630B439360F3
:104D200023685F4A934249D05E4A93425AD05E4A12
:104D3000934270D05D4A934200F096805C4A934261
:104D400000F0B880534A934200F0C980102270E00E
:104D500040F64541504802F043F883E740F64641AB
:104D60004D4802F03DF885E7E368002B96D0B3F597
:104D7000005F93D040F64941474802F031F88DE793
:104D800040F64D41444802F02BF882E740F64E4190
:104D9000414802F025F881E740F651413E4802F0D3
:104DA0001FF883E740F653413B4802F019F892E7B9
:104DB00040F65441384802F013F891E702F55842A2
:104DC000D2F8882002F00302032A09D8DFE802F0B3
:104DD00002049C0601222CE004222AE0082228E09A
:104DE000102226E002F5E632D2F8882002F00C020A
:104DF0000C2A0ED8DFE802F0070D0D0D090D0D0D80
:104E00008A0D0D0D0B00002213E0042211E0082290
:104E10000FE010220DE002F5E432D2F8882002F013
:104E20003002202A74D01BD8002A73D0102A73D1E4
:104E3000042218498B4200F08B80E069B0F5004FE6
:104E400000F0B680082A00F20F81DFE812F0DE00E1
:104E5000F400DC000D01F7000D010D010D01FA0059
:104E6000302A5BD10822E4E702F5E232D2F888204A
:104E700002F0C002802A53D005D8002A52D0402A1E
:104E800052D10422D5E7C02A50D10822D1E700BF71
:104E90008096980000800040849B0008F369FFEF33
:104EA000003801400044004000480040004C0040F1
:104EB0000050004002F5E032D2F8882002F440723F
:104EC000B2F5007F34D005D8A2B3B2F5807F33D1DC
:104ED0000422AEE7B2F5407F30D10822A9E702F5FF
:104EE000C832D2F8882002F44062B2F5006F27D0B1
:104EF00005D83AB3B2F5806F26D1042299E7B2F50E
:104F0000406F23D1082294E7022292E7022290E721
:104F100002228EE700228CE710228AE7102288E71F
:104F2000022286E7002284E7102282E7102280E72F
:104F300002227EE700227CE710227AE7102278E73F
:104F4000022276E7002274E7102272E7102270E74F
:104F5000082A79D8DFE802F008782A782778787864
:104F600005004FF4004003E0FDF7A8FD00286DD0D8
:104F7000626802EB420383426AD8B0EB023F69D811
:104F8000010E00025308C0184FF0000341F1000168
:104F9000FBF7E4FDA0F54072364B9A425CD82368DB
:104FA000D860002043E0FDF739F8DFE73248DFE75B
:104FB000082A53D8DFE802F0072105522452525242
:104FC0000B002D4803E0FDF779FD002848D062680A
:104FD000530803EB4000B0FBF2F080B2A0F11002E6
:104FE0004FF6EF739A423DD820F00F03C0F3420012
:104FF00018432368D860002019E0FDF771FDE4E74D
:10500000FDF70CF8E1E71C4802E0FDF757FD68B337
:10501000636800EB5300B0FBF3F080B2A0F1100224
:105020004FF6EF739A4223D82368D86000200023FC
:105030006366A36610BDFDF753FDE8E7FCF7EEFFDE
:10504000E5E74FF40040E3E70120F0E70020EEE75A
:105050000120ECE70120EAE70120E8E70120E6E78C
:105060000020E4E70120E2E70120E0E70020DEE79E
:105070000120DCE7FFFC0F000024F40010B504461B
:10508000436AFF2B00F2A180636A13F0010F0CD07A
:10509000A36A1BB1B3F5003F40F09D8022685368BE
:1050A00023F40033A16A0B435360636A13F0020FC9
:1050B0000CD0E36A1BB1B3F5803F40F092802268C8
:1050C000536823F48033E16A0B435360636A13F03F
:1050D000040F0CD0236B1BB1B3F5802F40F08780F9
:1050E0002268536823F48023216B0B435360636A67
:1050F00013F0080F0BD0636B13B1B3F5004F7CD1E5
:105100002268536823F40043616B0B435360636A66
:1051100013F0100F0BD0A36B13B1B3F5805F72D1F6
:105120002268936823F48053A16B0B439360636AF6
:1051300013F0200F0BD0E36B13B1B3F5005F68D110
:105140002268936823F40053E16B0B439360636A16
:1051500013F0400F28D02368434A934214D0A2F59D
:105160007442934210D002F5806293420CD002F553
:105170008062934208D002F58062934204D040F6E8
:1051800069513A4801F02CFE236C13B1B3F5801F2E
:1051900045D12268536823F48013216C0B4353607C
:1051A000236CB3F5801F40D0636A13F0800F0BD0DF
:1051B000A36C13B1B3F5002F50D12268536823F4C8
:1051C0000023A16C0B43536010BD40F63A512748B1
:1051D00001F006FE58E740F63F51244801F000FE7A
:1051E0005CE740F64651214801F0FAFD67E740F6DA
:1051F0004D511E4801F0F4FD72E740F654511B4832
:1052000001F0EEFD7CE740F65B51184801F0E8FD47
:1052100086E740F66251154801F0E2FD90E740F65E
:105220006A51124801F0DCFDB3E7636C43B1B3F59A
:10523000001F05D0B3F5800F02D0B3F5C00F07D122
:105240002268536823F4C003616C0B435360ABE7DF
:1052500040F66F51054801F0C3FDF1E740F6775184
:10526000024801F0BDFDA8E700380140849B00081A
:105270002DE9F84305460F4616469946DDF820808D
:105280002C68E46937EA04030CBF4FF0010C4FF0BF
:10529000000CB4453DD1B8F1FF3FF1D0FCF744FE1E
:1052A000A0EB0900404522D8B8F1000F1FD02B68B1
:1052B0001A6812F0040FE3D0DA6912F4006FDFD03D
:1052C0004FF400621A622A68136823F4D0731360E3
:1052D0002A68936823F0010393602023AB67EB6790
:1052E000C5F88030002385F87430032012E02A6866
:1052F000136823F4D07313602A68936823F00103C2
:1053000093602023AB67EB67002385F8743003209C
:1053100000E00020BDE8F8832DE9F04182B01E4690
:10532000836F202B56D104460D469046002955D058
:10533000002A55D090F87430012B53D0012380F807
:1053400074300023C0F8803021238367FCF7ECFD24
:105350000746A4F85080A4F85280A368B3F5805F94
:1053600005D04FF00008002384F8743014E023695E
:1053700013B14FF00008F6E7A8460025F3E738F828
:10538000023B2268C3F308031385B4F8522092B29B
:10539000013A92B2A4F85220B4F852309BB273B1E1
:1053A00000963B46002280212046FFF761FFD8B9D6
:1053B000002DE4D0236815F8012B1A85E5E7009647
:1053C0003B46002240212046FFF752FF70B92023C0
:1053D000A36700E0022002B0BDE8F0810120FAE7F7
:1053E0000120F8E70220F6E70320F4E70320F2E7C4
:1053F00030B583B004460023C0F88030FCF794FD3C
:1054000005462268126812F0080F0DD123681B6848
:1054100013F0040F16D12023A367E3670020206652
:1054200084F8740003B030BD6FF07E4300930346F0
:1054300000224FF400112046FFF71AFF0028E5D0A4
:105440000320EFE76FF07E4300932B4600224FF4DA
:1054500080012046FFF70CFF0028DCD00320E1E7A5
:1054600000286ED010B504468369002B41D0036834
:10547000354A934218D0A2F57442934214D002F5F3
:105480008062934210D002F5806293420CD002F504
:105490008062934208D002F54052934204D04FF408
:1054A000A6712A4801F09CFCA36F002B3FD0242357
:1054B000A3672268136823F0010313602046FFF7F7
:1054C000CBFB012814D0636A002B36D122685368C5
:1054D00023F4904353602268936823F02A03936077
:1054E0002268136843F0010313602046FFF780FF32
:1054F00010BD0368144A9342D6D0A2F57442934279
:10550000D2D002F580629342CED002F580629342FF
:10551000CAD002F580629342C6D002F5405293424F
:10552000C2D040F25111094801F05AFCBCE784F89E
:1055300074302046FBF7D4FEB9E72046FFF79EFD06
:10554000C4E70120704700BF00380140849B000879
:1055500003464165A0F85820A0F85A200022426670
:105560008268B2F5805F06D0A2B9026972B9FF22E3
:10557000A0F85C2014E0026922B940F2FF12A0F802
:105580005C200DE0FF22A0F85C2009E07F22A0F85B
:105590005C2005E0B2F1805F1BD00022A0F85C2007
:1055A0000022C3F880202222DA6719688A6842F054
:1055B00001028A609A68B2F5805F14D00D4A5A667B
:1055C000002083F874001A68136843F49073136022
:1055D000704702691AB97F22A0F85C20E0E73F22F9
:1055E000A0F85C20DCE71A69002AE7D1024A5A6673
:1055F000E6E700BF4D4B0008D34B0008C36F202BDC
:105600001AD1D9B1E2B190F87430012B1AD010B58B
:10561000012380F874300023036603680A4CA34218
:1056200007D05C6814F4000F03D01C6844F0806459
:105630001C60FFF78DFF10BD0220704701207047EE
:105640000120704702207047008000407047000032
:105650000F49D1F8883043F47003C1F888300D4BFE
:105660001A6842F001021A60002098601A6822F05D
:10567000A85222F410221A604FF48052DA601A689D
:1056800022F480221A6098614FF000638B607047AB
:1056900000ED00E0001002400146B0B1002301E03F
:1056A0000133DBB2142B0FD8094A52F833208A4257
:1056B000F6D85A1C064850F832008842F0D9044BFC
:1056C00003EBC20210797047FEE71F20704700BF4E
:1056D000089C0008012070470320704708B5034B61
:1056E0001B6813B15B6803B1984708BDA80100208F
:1056F00008B5034B1B6813B1DB6803B1984708BDBD
:10570000A8010020014B01221A707047A40100205B
:1057100008B5002000F038FD08BD000008B5134BA7
:105720001860134800F098FE002000F02DFD0120C5
:1057300000F0EFFD0021084601F04EF804210020A2
:1057400000F02DFF00231A464FF6FF71084600F0C7
:1057500046FE0849084801F0C3F90849084801F025
:10576000BFF9084B00221A7008BD00BFA801002035
:1057700005570008DD560008EC030020F15600082C
:10578000C8020020A401002008B500F0C5FC0428D0
:1057900005D0052805D0032800D0002008BD022030
:1057A000FCE70120FAE708B500F06EFE08BD08B579
:1057B00001F020F800B208BD08B5012805D00C4B57
:1057C00093F8D730012B09D008BD0A4B197008484F
:1057D00080F8DF10D03000F099FFF5E7054B197025
:1057E000034880F8D810D03000F090FFECE700BFFD
:1057F000DC0200200C0000202DE9F84F0C4620B1FF
:10580000012849D00020BDE8F88F674DB5F8D230A7
:1058100095F8D50003EBD000FAF77CFE95F8D73069
:105820009BBB00220023FAF729FD06460F462046BF
:10583000FAF770FE32463B46FAF720FD5A4B93F8D2
:10584000D930022B24D000220023FAF717FD0022C2
:10585000564BFAF7C9FE04460D46534BD3F8FC00ED
:10586000FAF748FE02460B4620462946FAF7E6FFBD
:1058700000224F4BFAF7B8FE41EC100B03F064FF27
:1058800051EC100BFBF74AF9BDE70022494BCAE780
:1058900000224FF08043D8E7DFF80C8198F80931F7
:1058A000043B98F80851C5F10C0203EB430302EBEB
:1058B0004302414B03EBC203D3E900ABB8F8DC0071
:1058C000FAF728FE00223D4BFAF7D8FC52465B4619
:1058D000FAF78AFE06460F46C5EB4404073498F8EB
:1058E000E00004EB8004A40098F8DE30012B50D0D7
:1058F0000020201AFAF70EFE804689462A4B93F8BC
:105900000B31002B47D00220281A8000FAF702FE44
:1059100002460B4640464946FAF790FF41EC100B11
:1059200003F00EFE55EC104B1F4B93F80A0100F0EC
:1059300003000430FAF7EEFD02460B4620462946E6
:10594000FAF752FE04460D4600220023FBF7DCF86E
:1059500018B30022154B20462946FAF78FFC024661
:105960000B4650465946FAF73FFE02460B46304674
:105970003946FAF783FC0AA3D3E90023FAF77EFC41
:1059800041EC100B03F05CFE51EC100BFBF7C6F87A
:1059900039E71420ADE70020B6E700240025D8E75A
:1059A0002B8716D9CEF7EF3FDC0200200000204005
:1059B00000408F400000F03F289D0008000011408B
:1059C00038B505460C4600231A4640F20121084628
:1059D00000F005FD00F09CFD012814D00C4B83F86D
:1059E000D8400C4800F092FE00222146284600F0E4
:1059F000FFFB094C094B1968204601F0FFF82046CF
:105A000001F07AF838BD024B83F8DF40E9E700BFC8
:105A1000DC020020AC030020EC030020E80300209F
:105A200038B5044600231A464FF6FF71084600F0C9
:105A3000D6FC3CB90B4B1B786BB16FF07F4000F08C
:105A4000DFFB38BD084D2146284601F0D7F828462F
:105A500001F052F8EEE7054B1868800100F0D0FB2A
:105A6000EFE700BFC3020020C8020020C4020020EC
:105A700008B54FF0040000F073FB022000F05BFF5C
:105A800008BD000038B5044600231A464FF6FF71E2
:105A9000084600F0A4FC3CB90B4B1B786BB16FF0CF
:105AA0007F4000F0C7FB38BD084D2146284601F075
:105AB000A5F8284601F020F8EEE7054B18688001AC
:105AC00000F0B8FBEFE700BFC3020020C8020020CF
:105AD000C402002008B500F0CBFB08BD08B500F0FB
